:100B5C002530336400424F4F4D2100506F696E7445
:100B6C00733A20253033640047616D65204F7665FC
:100B7C00720053746F636B20436172005072657323
:100B8C0073696F6E65207061726100696E6963696B
:100B9C00617200000000000000005F000000070010
:100BAC000700147F147F14242A7F2A12231308644D
:100BBC006236495522500005030000001C224100FA
:100BCC000041221C0014083E081408083E080800C6
:100BDC005030000008080808080060600000201071
:100BEC000804023E5149453E00427F40004261519B
:100BFC0049462141454B311814127F102745454574
:100C0C00393C4A494930017109050336494949368D
:100C1C00064949291E0036360000005636000008E9
:100C2C00142241001414141414004122140802015B
:100C3C00510906324979413EE742FF42E77F494973
:100C4C0049363E414141227F4141221C7F4949495D
:100C5C00417F090909013E4149497A7F0808087F0B
:100C6C0000417F41002040413F017F081422417F19
:100C7C00404040407F020C027F7F0408107F3E41C1
:100C8C0041413E7F090909063E4151215E7F091908
:100C9C002946464949493101017F01013F40404005
:100CAC003F1F2040201F3F4038403F63140814630F
:100CBC0007087008076151494543007F4141000214
:100CCC00040810200041417F00040201020440404E
:100CDC00404040000102040020545454787F4844A2
:100CEC0044383844444420384444487F385454549D
:100CFC0018087E0901020C5252523E7F08040478F7
:100D0C0000447D40002040443D007F1028440000FA
:100D1C00417F40007C041804787C08040478384433
:100D2C004444387C14141408081414187C7C0804EB
:100D3C0004084854545420043F4440203C40402074
:100D4C007C1C2040201C3C4030403C442810284453
:100D5C000C5050503C4464544C4400083641000044
:100D6C00007F000000413608001008081008784683
:030D7C0041467875
:10132A00E4FDFCC3ED9FEC9E5015E4FBFA0BBB00F9
:0F133A00010AEB64704A70F50DBD00010C80E4F0
:011349002281
:04135F00EB24B8FFC4
:0D1363008FB0C2A0C2A1D2A200C2A200227F
:0D1370008FB0D2A0C2A1D2A200C2A2002262
:10130400D2A3D2A4D2A57F147E0012132A7F3E1248
:1013140013637F401213637FB81213637FC01213E9
:06132400637F3F0213632A
:1011F100D2A3D2A4E4FDFCED24B8FF121363E4FBF7
:10120100FAE4FF1213700BBB00010AEB64404A7051
:10121100F00DBD00010CED64084C70DB7F40121332
:06122100637FB8021363B5
:04110600A907AA0586
:10110A00E4FDFCEA2DFEC39440400BC2A3D2A41214
:10111A00135FAF06800BD2A3C2A412135FEE244062
:10112A00FF121363E9FF3395E0FE900AFF75F0059D
:10113A00EF121015EE75F005A42583F583E5822DCF
:10114A00F582E5833CF583E493FF1213700DBD002D
:0D115A00010CED64054C70ABE4FF02137056
:10125C008B4C8A4D894E8D4FAB4CAA4DA94E120F1B
:10126C0071FF601AAB50AD4F1211067406254FF585
:0F127C004F7401254EF54EE4354DF54D80DA22C5
:02109600A907A8
:101098007E06E4FBFAEB2DFCC39440400FC2A3D2BA
:1010A800A4EE24B8FF121363AF04800FD2A3C2A426
:1010B800EE24B8FF121363EC2440FF121363E9F522
:1010C800823395E0F58375F005A4240AF58375F05D
:1010D80005E582A424FFF582E5F03583F583E582F2
:1010E8002BF582E5833AF583E493FF1213700BBB6B
:0E10F80000010AEB64054A709CE4FF021370CD
:0412B5008D408B419C
:1012B900754FFF75500B75515C8E528F537B007AB9
:1012C90000794212085C7B007A007942854150AD71
:0412D9004002125C61
:10134A008F408D418B42121106E541243CFDAB4290
:05135A00AF4002110686
:10128B008F408D41E540D394147BFF7A0B796140FD
:10129B000AE54024F1FD8541508005854150AD4064
:0A12AB0012125C7FDC7E0502132A9C
:10122700754FFF75500B7551678E528F537B007A40
:1012370000794012085C1211F17BFF7A0B79747503
:1012470050037D2312125C7B007A007940755004AD
:051257007D1D02125C88
:1011B4001211F17BFF7A0B797E7550037D22121296
:1011C4005C7BFF7A0B79887550057D1412125C7B69
:1011D400FF7A0B79977550067D2812125C309003C4
:0D11E4002091FA1211F17F647E0002132A9F
:100D7F0075223E752320E4F524F538F539F53AF55B
:100D8F003BF53CF53D753E01753F2C1213041211D6
:100D9F00B4E4F52474252524F87620742D2524F841
:100DAF0076FF0524E524B408EB7F017E001211A91C
:100DBF001211F1AD227F411210961211677C007D46
:100DCF0037120FDF8D361211677C007D0F120FDF88
:100DDF008D3720900674052522F52220910674FB8D
:100DEF002522F522E522D3947A400375227AE52253
:100DFF00C394055003E4F522852535E53B453A704C
:100E0F00211211677C007D03120FDF8C388D391290
:100E1F0011677C007D05120FDFED2403F53BE43CE9
:100E2F00F53AE5394538700DE535D394054006158B
:100E3F003515358013E53964024538700BE535C338
:100E4F00943F500405350535E53B153B7002153AC7
:100E5F0075240774242524F8E6FF74252524F8A6A5
:100E6F0007742C2524F8E6FF742D2524F8A607D542
:100E7F0024E1E52B2405FFE433FEC3E5229FEE6456
:100E8F0080F87480985006E52B2405F522E52B2475
:100E9F0037FFE522D39F40028F22853525E537C3E3
:100EAF009404500AE53524052536F52D8003752D5C
:100EBF00FF1211F1E4F52474252524F8E6FDAB2487
:100ECF007F7C12134A742D2524F8E6FDF46007ABDE
:100EDF00247F581211060524E524C3940840D8AD89
:100EEF00227F41121096E533F4602CE522C395332F
:100EFF004025E5332404FFE433FED3E5229FEE645F
:100F0F0080F874809850107D06AF2212128BAF3D7F
:100F1F00AE3C12122780FEE4FBFDAF3DAE3C121239
:100F2F00B5053DE53D7002053CD39400E53C9400CA
:100F3F004026AE3CAF3D7C007D19120F8AED4C7000
:100F4F0017D3E53F9432E53E9400400C74D8253F0B
:100F5F00F53F74FF353EF53EAF3FAE3E12132A020A
:020F6F000DC9AA
:0300000002137D6B
:0C137D00787FE4F6D8FD75815F020D7FDB
:100F7100BB010689828A83E0225002E722BBFE027E
:090F8100E32289828A83E49322B1
:100F8A00BC000BBE0029EF8DF084FFADF022E4CC4B
:100F9A00F875F008EF2FFFEE33FEEC33FCEE9DEC14
:100FAA00984005FCEE9DFE0FD5F0E9E4CEFD22ED5A
:100FBA00F8F5F0EE8420D21CFEADF075F008EF2FA4
:100FCA00FFED33FD4007985006D5F0F222C398FD95
:050FDA000FD5F0EA2232
:100FDF00C2D5EC30E709B2D5E4C39DFDE49CFCEE2D
:100FEF0030E715B2D5E4C39FFFE49EFE120F8AC30C
:100FFF00E49DFDE49CFC8003120F8A30D507C3E407
:06100F009FFFE49EFE229B
:0C101500A42582F582E5F03583F58322E6
:10080000E55B244FF8E6055B22784C300702784F11
:10081000E475F001121060020F712000EB7F2ED200
:10082000008018EF540F2490D43440D4FF30040BD0
:10083000EF24BFB41A0050032461FFE55C60021589
:100840005C055FE55F7002055E30070D784CE4756E
:10085000F001121060EF02104E0212DD7403D20795
:100860008003E4C207F55B8B4C8A4D894EE4F55C4E
:10087000F55EF55FE55C60077F2012083B80F5754B
:100880005DFFC201C200C202C203C205C206C208A5
:10089000120809FF700D3007057F0012084CAF5F8A
:1008A000AE5E22B4255FC2D5C204120809FF24D06F
:1008B000B40A00501A75F00A785C30D50508B6FF06
:1008C0000106C6A426F620D5047002D20380D924DE
:1008D000CFB41A00EF5004C2E5D204020A4CD20190
:1008E00080C6D20080C0D20280BCD2D580BAD205E8
:1008F00080B47F2012083B2002077401B55C0040E1
:10090000F1120800FF12083B020874D208D20680D8
:1009100095120800FB120800FA120800F94A4B7001
:1009200006791D7A0B7BFF20022EE55C602A7E0093
:100930008E8275830012102160060EEE655D70F0E8
:10094000C2D5EBC0E0EAC0E0E9C0E0EE120A93D005
:10095000E0F9D0E0FAD0E0FB120F71FF60AAEBC023
:10096000E0EAC0E0E9C0E012083BD0E02401F9D0A1
:10097000E03400FAD0E0FBE55D0460DCD55DD980B1
:10098000877BFF7A0A798FD202809C791080027966
:1009900008C206C2088008D2D5790A8004790AC242
:1009A000D5E55D047002F55DE4FAFDFEFF12080076
:1009B000FC7B08200113120800FD7B1030000A1296
:1009C0000800FE120800FF7B20EC3382D592D55040
:1009D00013C3E43000069FFFE49EFEE42001039D64
:1009E000FDE49CFCE4CBF8C201EC700CCFCECDCC86
:1009F000E824F8F870F38017C3EF33FFEE33FEED11
:100A000033FDEC33FCEB33FB994002FB0FD8E9EBF1
:100A1000300105F8D0E0C448B201C0E00AEC4D4E08
:100A20004F78207B0070C2EAB55D0040BCC0E01288
:100A30000A95D0F0D0E0200104C4C0E0C4B201C0E7
:100A4000F0120824D0F0D5F0EB02087412107009EF
:100A50001153098B5808E24C08DE42098F4F099761
:0F0A60004409974908F743099D550981460981C3
:100A6F00450981470B3D5008E62D08EA2E090D2B4D
:100A7F0008EE23090B200B262A08A64800000905BB
:100A8F003F3F3F00790AA2D5200314300509B91062
:100A9F00020404B9080104A2D52006025001042063
:100AAF0002689202B55C005034C0E07F2030031919
:100ABF007F30A20272067205500F120AECC202C2F8
:100ACF0006C205C2087F30800F300503E9C0E0126F
:100ADF00083B300503D0E0F9D0E0B55CCC3005170A
:100AEF007F30B9100C12083B7F583004077F788095
:100AFF0003B9080312083B3002057F2D02083B7F24
:100B0F00202008F87F2B2006F322920280CF286E38
:100B1F00756C6C2900D2011208003001F8C20178FF
:100B2F005C30D50108F60208A62D5043495812082B
:100B3F00002403B405004001E4900B389312082CF5
:0D0B4F00743A12082CD203755C0402098B65
:10116700AC08AD09AE0AAF0B7810EC4D4E4F7004CA
:101177007CA57DA5C3EC13FCED13FDEE13FEEF1369
:10118700FF5010EC64CCFCED644CFDEE644EFEEFBA
:1011970064CEFFD8DF8C088D098E0A8F0BEE547F43
:0D11A700FE228E088F0974A5F50AF50B22B3
:10102100BB010CE58229F582E5833AF583E0225084
:1010310006E92582F8E622BBFE06E92582F8E222CE
:0D104100E58229F582E5833AF583E49322E8
:10104E00BB010689828A83F0225002F722BBFE0181
:02105E00F3227B
:10106000FAE6FB0808E6F925F0F618E6CA3AF62291
:10107000D083D082F8E4937012740193700DA3A30F
:1010800093F8740193F5828883E473740293686023
:06109000EFA3A3A380DF23
:1012DD00EFB40A07740D1212E8740A309811A89928
:1012ED00B8130CC2983098FDA899C298B811F63071
:0712FD0099FDC299F5992249
:00000001FF
